{
  "address": "0xBF3444a2f7c6a536360E4845db7091c14a8F75Cc",
  "abi": [
    {
      "inputs": [],
      "stateMutability": "nonpayable",
      "type": "constructor"
    },
    {
      "inputs": [],
      "name": "AccessControlBadConfirmation",
      "type": "error"
    },
    {
      "inputs": [
        {
          "internalType": "address",
          "name": "account",
          "type": "address"
        },
        {
          "internalType": "bytes32",
          "name": "neededRole",
          "type": "bytes32"
        }
      ],
      "name": "AccessControlUnauthorizedAccount",
      "type": "error"
    },
    {
      "inputs": [
        {
          "internalType": "address",
          "name": "target",
          "type": "address"
        }
      ],
      "name": "AddressEmptyCode",
      "type": "error"
    },
    {
      "inputs": [
        {
          "internalType": "address",
          "name": "account",
          "type": "address"
        }
      ],
      "name": "AddressInsufficientBalance",
      "type": "error"
    },
    {
      "inputs": [],
      "name": "FailedInnerCall",
      "type": "error"
    },
    {
      "inputs": [],
      "name": "InvalidInitialization",
      "type": "error"
    },
    {
      "inputs": [],
      "name": "NotInitializing",
      "type": "error"
    },
    {
      "inputs": [
        {
          "internalType": "address",
          "name": "token",
          "type": "address"
        }
      ],
      "name": "SafeERC20FailedOperation",
      "type": "error"
    },
    {
      "anonymous": false,
      "inputs": [
        {
          "indexed": false,
          "internalType": "uint256",
          "name": "sppId",
          "type": "uint256"
        },
        {
          "indexed": false,
          "internalType": "uint256",
          "name": "didAccountPubKey",
          "type": "uint256"
        }
      ],
      "name": "DidRegistered",
      "type": "event"
    },
    {
      "anonymous": false,
      "inputs": [
        {
          "indexed": false,
          "internalType": "uint256",
          "name": "sppId",
          "type": "uint256"
        },
        {
          "indexed": false,
          "internalType": "uint256",
          "name": "didAccountPubKey",
          "type": "uint256"
        }
      ],
      "name": "DidUnregistered",
      "type": "event"
    },
    {
      "anonymous": false,
      "inputs": [
        {
          "indexed": false,
          "internalType": "uint64",
          "name": "version",
          "type": "uint64"
        }
      ],
      "name": "Initialized",
      "type": "event"
    },
    {
      "anonymous": false,
      "inputs": [
        {
          "indexed": false,
          "internalType": "uint256",
          "name": "sppId",
          "type": "uint256"
        },
        {
          "indexed": false,
          "internalType": "uint32",
          "name": "timestamp",
          "type": "uint32"
        },
        {
          "indexed": false,
          "internalType": "uint128",
          "name": "productionW",
          "type": "uint128"
        },
        {
          "indexed": false,
          "internalType": "uint128",
          "name": "cdataAmount",
          "type": "uint128"
        },
        {
          "indexed": false,
          "internalType": "uint128",
          "name": "cwattAmount",
          "type": "uint128"
        }
      ],
      "name": "ProductionInfoAdded",
      "type": "event"
    },
    {
      "anonymous": false,
      "inputs": [
        {
          "indexed": false,
          "internalType": "uint256",
          "name": "tokenId",
          "type": "uint256"
        },
        {
          "indexed": false,
          "internalType": "uint256",
          "name": "sppId",
          "type": "uint256"
        },
        {
          "indexed": false,
          "internalType": "address",
          "name": "owner",
          "type": "address"
        },
        {
          "indexed": false,
          "internalType": "uint128",
          "name": "cdataAmount",
          "type": "uint128"
        },
        {
          "indexed": false,
          "internalType": "uint128",
          "name": "cwattAmount",
          "type": "uint128"
        }
      ],
      "name": "RewardCollected",
      "type": "event"
    },
    {
      "anonymous": false,
      "inputs": [
        {
          "indexed": true,
          "internalType": "bytes32",
          "name": "role",
          "type": "bytes32"
        },
        {
          "indexed": true,
          "internalType": "bytes32",
          "name": "previousAdminRole",
          "type": "bytes32"
        },
        {
          "indexed": true,
          "internalType": "bytes32",
          "name": "newAdminRole",
          "type": "bytes32"
        }
      ],
      "name": "RoleAdminChanged",
      "type": "event"
    },
    {
      "anonymous": false,
      "inputs": [
        {
          "indexed": true,
          "internalType": "bytes32",
          "name": "role",
          "type": "bytes32"
        },
        {
          "indexed": true,
          "internalType": "address",
          "name": "account",
          "type": "address"
        },
        {
          "indexed": true,
          "internalType": "address",
          "name": "sender",
          "type": "address"
        }
      ],
      "name": "RoleGranted",
      "type": "event"
    },
    {
      "anonymous": false,
      "inputs": [
        {
          "indexed": true,
          "internalType": "bytes32",
          "name": "role",
          "type": "bytes32"
        },
        {
          "indexed": true,
          "internalType": "address",
          "name": "account",
          "type": "address"
        },
        {
          "indexed": true,
          "internalType": "address",
          "name": "sender",
          "type": "address"
        }
      ],
      "name": "RoleRevoked",
      "type": "event"
    },
    {
      "anonymous": false,
      "inputs": [
        {
          "indexed": false,
          "internalType": "uint256",
          "name": "sppId",
          "type": "uint256"
        },
        {
          "indexed": false,
          "internalType": "uint32",
          "name": "startTime",
          "type": "uint32"
        },
        {
          "indexed": false,
          "internalType": "string",
          "name": "infoIpfsCid",
          "type": "string"
        }
      ],
      "name": "SppCreated",
      "type": "event"
    },
    {
      "anonymous": false,
      "inputs": [
        {
          "indexed": false,
          "internalType": "uint256",
          "name": "sppId",
          "type": "uint256"
        },
        {
          "indexed": false,
          "internalType": "string",
          "name": "ipfsCid",
          "type": "string"
        }
      ],
      "name": "SppIpfsCidUpdated",
      "type": "event"
    },
    {
      "anonymous": false,
      "inputs": [
        {
          "indexed": false,
          "internalType": "uint256",
          "name": "tokenId",
          "type": "uint256"
        },
        {
          "indexed": false,
          "internalType": "uint256",
          "name": "sppId",
          "type": "uint256"
        },
        {
          "indexed": false,
          "internalType": "uint128",
          "name": "capacity",
          "type": "uint128"
        }
      ],
      "name": "TokenStaked",
      "type": "event"
    },
    {
      "anonymous": false,
      "inputs": [
        {
          "indexed": false,
          "internalType": "uint256",
          "name": "tokenId",
          "type": "uint256"
        },
        {
          "indexed": false,
          "internalType": "uint256",
          "name": "sppId",
          "type": "uint256"
        },
        {
          "indexed": false,
          "internalType": "uint128",
          "name": "capacity",
          "type": "uint128"
        }
      ],
      "name": "TokenWithdrawn",
      "type": "event"
    },
    {
      "inputs": [],
      "name": "CDATAToken",
      "outputs": [
        {
          "internalType": "contract IERC20",
          "name": "",
          "type": "address"
        }
      ],
      "stateMutability": "view",
      "type": "function"
    },
    {
      "inputs": [],
      "name": "CWATTToken",
      "outputs": [
        {
          "internalType": "contract IERC20",
          "name": "",
          "type": "address"
        }
      ],
      "stateMutability": "view",
      "type": "function"
    },
    {
      "inputs": [],
      "name": "DATA_UPDATER_ROLE",
      "outputs": [
        {
          "internalType": "bytes32",
          "name": "",
          "type": "bytes32"
        }
      ],
      "stateMutability": "view",
      "type": "function"
    },
    {
      "inputs": [],
      "name": "DEFAULT_ADMIN_ROLE",
      "outputs": [
        {
          "internalType": "bytes32",
          "name": "",
          "type": "bytes32"
        }
      ],
      "stateMutability": "view",
      "type": "function"
    },
    {
      "inputs": [],
      "name": "SPP_MANAGER_ROLE",
      "outputs": [
        {
          "internalType": "bytes32",
          "name": "",
          "type": "bytes32"
        }
      ],
      "stateMutability": "view",
      "type": "function"
    },
    {
      "inputs": [
        {
          "internalType": "uint256",
          "name": "sppId",
          "type": "uint256"
        },
        {
          "internalType": "uint32",
          "name": "startTime",
          "type": "uint32"
        },
        {
          "internalType": "uint32",
          "name": "maxCapacity",
          "type": "uint32"
        },
        {
          "internalType": "string",
          "name": "infoIpfsCid",
          "type": "string"
        }
      ],
      "name": "addSpp",
      "outputs": [],
      "stateMutability": "nonpayable",
      "type": "function"
    },
    {
      "inputs": [
        {
          "internalType": "uint256",
          "name": "sppId",
          "type": "uint256"
        },
        {
          "internalType": "uint32",
          "name": "previousUpdateTime",
          "type": "uint32"
        },
        {
          "internalType": "uint32",
          "name": "timestamp",
          "type": "uint32"
        },
        {
          "internalType": "uint128",
          "name": "productionW",
          "type": "uint128"
        },
        {
          "internalType": "uint128",
          "name": "cdataAmount",
          "type": "uint128"
        },
        {
          "internalType": "uint128",
          "name": "cwattAmount",
          "type": "uint128"
        }
      ],
      "name": "addSppProductionInfo",
      "outputs": [],
      "stateMutability": "nonpayable",
      "type": "function"
    },
    {
      "inputs": [
        {
          "internalType": "address",
          "name": "owner",
          "type": "address"
        }
      ],
      "name": "balanceOf",
      "outputs": [
        {
          "internalType": "uint256",
          "name": "",
          "type": "uint256"
        }
      ],
      "stateMutability": "view",
      "type": "function"
    },
    {
      "inputs": [
        {
          "internalType": "uint256",
          "name": "tokenId",
          "type": "uint256"
        },
        {
          "internalType": "uint256",
          "name": "sppId",
          "type": "uint256"
        }
      ],
      "name": "calculateRewardsEarned",
      "outputs": [
        {
          "internalType": "uint128",
          "name": "earnedCdata",
          "type": "uint128"
        },
        {
          "internalType": "uint128",
          "name": "earnedCwatt",
          "type": "uint128"
        }
      ],
      "stateMutability": "view",
      "type": "function"
    },
    {
      "inputs": [
        {
          "internalType": "uint256",
          "name": "tokenId",
          "type": "uint256"
        }
      ],
      "name": "collectReward",
      "outputs": [],
      "stateMutability": "nonpayable",
      "type": "function"
    },
    {
      "inputs": [
        {
          "internalType": "bytes32",
          "name": "role",
          "type": "bytes32"
        }
      ],
      "name": "getRoleAdmin",
      "outputs": [
        {
          "internalType": "bytes32",
          "name": "",
          "type": "bytes32"
        }
      ],
      "stateMutability": "view",
      "type": "function"
    },
    {
      "inputs": [
        {
          "internalType": "uint256",
          "name": "sppId",
          "type": "uint256"
        },
        {
          "internalType": "uint256",
          "name": "index",
          "type": "uint256"
        }
      ],
      "name": "getSppDidByIndex",
      "outputs": [
        {
          "internalType": "uint256",
          "name": "",
          "type": "uint256"
        }
      ],
      "stateMutability": "view",
      "type": "function"
    },
    {
      "inputs": [
        {
          "internalType": "uint256",
          "name": "sppId",
          "type": "uint256"
        }
      ],
      "name": "getSppDidCount",
      "outputs": [
        {
          "internalType": "uint256",
          "name": "",
          "type": "uint256"
        }
      ],
      "stateMutability": "view",
      "type": "function"
    },
    {
      "inputs": [
        {
          "internalType": "bytes32",
          "name": "role",
          "type": "bytes32"
        },
        {
          "internalType": "address",
          "name": "account",
          "type": "address"
        }
      ],
      "name": "grantRole",
      "outputs": [],
      "stateMutability": "nonpayable",
      "type": "function"
    },
    {
      "inputs": [
        {
          "internalType": "bytes32",
          "name": "role",
          "type": "bytes32"
        },
        {
          "internalType": "address",
          "name": "account",
          "type": "address"
        }
      ],
      "name": "hasRole",
      "outputs": [
        {
          "internalType": "bool",
          "name": "",
          "type": "bool"
        }
      ],
      "stateMutability": "view",
      "type": "function"
    },
    {
      "inputs": [
        {
          "internalType": "address",
          "name": "defaultAdmin",
          "type": "address"
        },
        {
          "internalType": "contract ICpinVirtualPanel",
          "name": "_nft",
          "type": "address"
        },
        {
          "internalType": "contract IERC20",
          "name": "_CDATAToken",
          "type": "address"
        },
        {
          "internalType": "contract IERC20",
          "name": "_CWATTToken",
          "type": "address"
        }
      ],
      "name": "initialize",
      "outputs": [],
      "stateMutability": "nonpayable",
      "type": "function"
    },
    {
      "inputs": [
        {
          "internalType": "bytes[]",
          "name": "data",
          "type": "bytes[]"
        }
      ],
      "name": "multicall",
      "outputs": [
        {
          "internalType": "bytes[]",
          "name": "results",
          "type": "bytes[]"
        }
      ],
      "stateMutability": "nonpayable",
      "type": "function"
    },
    {
      "inputs": [],
      "name": "nft",
      "outputs": [
        {
          "internalType": "contract ICpinVirtualPanel",
          "name": "",
          "type": "address"
        }
      ],
      "stateMutability": "view",
      "type": "function"
    },
    {
      "inputs": [
        {
          "internalType": "address",
          "name": "",
          "type": "address"
        },
        {
          "internalType": "address",
          "name": "from",
          "type": "address"
        },
        {
          "internalType": "uint256",
          "name": "tokenId",
          "type": "uint256"
        },
        {
          "internalType": "bytes",
          "name": "data",
          "type": "bytes"
        }
      ],
      "name": "onERC721Received",
      "outputs": [
        {
          "internalType": "bytes4",
          "name": "",
          "type": "bytes4"
        }
      ],
      "stateMutability": "nonpayable",
      "type": "function"
    },
    {
      "inputs": [
        {
          "internalType": "uint256",
          "name": "sppId",
          "type": "uint256"
        },
        {
          "internalType": "uint256",
          "name": "didAccountPubKey",
          "type": "uint256"
        }
      ],
      "name": "registerDid",
      "outputs": [],
      "stateMutability": "nonpayable",
      "type": "function"
    },
    {
      "inputs": [
        {
          "internalType": "bytes32",
          "name": "role",
          "type": "bytes32"
        },
        {
          "internalType": "address",
          "name": "callerConfirmation",
          "type": "address"
        }
      ],
      "name": "renounceRole",
      "outputs": [],
      "stateMutability": "nonpayable",
      "type": "function"
    },
    {
      "inputs": [
        {
          "internalType": "bytes32",
          "name": "role",
          "type": "bytes32"
        },
        {
          "internalType": "address",
          "name": "account",
          "type": "address"
        }
      ],
      "name": "revokeRole",
      "outputs": [],
      "stateMutability": "nonpayable",
      "type": "function"
    },
    {
      "inputs": [
        {
          "internalType": "uint256",
          "name": "",
          "type": "uint256"
        }
      ],
      "name": "sppDatas",
      "outputs": [
        {
          "internalType": "uint128",
          "name": "totalStakedCapacity",
          "type": "uint128"
        },
        {
          "internalType": "uint32",
          "name": "startTime",
          "type": "uint32"
        },
        {
          "internalType": "uint32",
          "name": "numberOfStakes",
          "type": "uint32"
        },
        {
          "internalType": "uint32",
          "name": "lastUpdateTime",
          "type": "uint32"
        },
        {
          "internalType": "uint32",
          "name": "maxCapacity",
          "type": "uint32"
        },
        {
          "internalType": "uint128",
          "name": "rewardIndexCDATA",
          "type": "uint128"
        },
        {
          "internalType": "uint128",
          "name": "rewardIndexCWATT",
          "type": "uint128"
        }
      ],
      "stateMutability": "view",
      "type": "function"
    },
    {
      "inputs": [
        {
          "internalType": "uint256",
          "name": "",
          "type": "uint256"
        }
      ],
      "name": "sppIpfsCids",
      "outputs": [
        {
          "internalType": "string",
          "name": "",
          "type": "string"
        }
      ],
      "stateMutability": "view",
      "type": "function"
    },
    {
      "inputs": [
        {
          "internalType": "bytes4",
          "name": "interfaceId",
          "type": "bytes4"
        }
      ],
      "name": "supportsInterface",
      "outputs": [
        {
          "internalType": "bool",
          "name": "",
          "type": "bool"
        }
      ],
      "stateMutability": "view",
      "type": "function"
    },
    {
      "inputs": [
        {
          "internalType": "uint256",
          "name": "",
          "type": "uint256"
        },
        {
          "internalType": "uint256",
          "name": "",
          "type": "uint256"
        }
      ],
      "name": "tokenEarnedValues",
      "outputs": [
        {
          "internalType": "uint128",
          "name": "valueCDATA",
          "type": "uint128"
        },
        {
          "internalType": "uint128",
          "name": "valueCWATT",
          "type": "uint128"
        }
      ],
      "stateMutability": "view",
      "type": "function"
    },
    {
      "inputs": [
        {
          "internalType": "uint256",
          "name": "",
          "type": "uint256"
        }
      ],
      "name": "tokenIdToSppId",
      "outputs": [
        {
          "internalType": "uint256",
          "name": "",
          "type": "uint256"
        }
      ],
      "stateMutability": "view",
      "type": "function"
    },
    {
      "inputs": [
        {
          "internalType": "address",
          "name": "owner",
          "type": "address"
        },
        {
          "internalType": "uint256",
          "name": "index",
          "type": "uint256"
        }
      ],
      "name": "tokenOfOwnerByIndex",
      "outputs": [
        {
          "internalType": "uint256",
          "name": "",
          "type": "uint256"
        }
      ],
      "stateMutability": "view",
      "type": "function"
    },
    {
      "inputs": [
        {
          "internalType": "uint256",
          "name": "",
          "type": "uint256"
        },
        {
          "internalType": "uint256",
          "name": "",
          "type": "uint256"
        }
      ],
      "name": "tokenRewardIndexes",
      "outputs": [
        {
          "internalType": "uint128",
          "name": "valueCDATA",
          "type": "uint128"
        },
        {
          "internalType": "uint128",
          "name": "valueCWATT",
          "type": "uint128"
        }
      ],
      "stateMutability": "view",
      "type": "function"
    },
    {
      "inputs": [
        {
          "internalType": "uint256",
          "name": "sppId",
          "type": "uint256"
        },
        {
          "internalType": "uint256",
          "name": "didAccountPubKey",
          "type": "uint256"
        }
      ],
      "name": "unregisterDid",
      "outputs": [],
      "stateMutability": "nonpayable",
      "type": "function"
    },
    {
      "inputs": [
        {
          "internalType": "uint256",
          "name": "sppId",
          "type": "uint256"
        },
        {
          "internalType": "string",
          "name": "ipfsCid",
          "type": "string"
        }
      ],
      "name": "updateSppIpfsCid",
      "outputs": [],
      "stateMutability": "nonpayable",
      "type": "function"
    },
    {
      "inputs": [
        {
          "internalType": "uint256",
          "name": "tokenId",
          "type": "uint256"
        },
        {
          "internalType": "address",
          "name": "owner",
          "type": "address"
        },
        {
          "internalType": "bytes",
          "name": "data",
          "type": "bytes"
        }
      ],
      "name": "withdrawToken",
      "outputs": [],
      "stateMutability": "nonpayable",
      "type": "function"
    }
  ],
  "transactionHash": "0x0a871a8d78d570ee27c5d78ef596d0a30cc8738bab1533ee6aacacf3942a6809",
  "args": [],
  "numDeployments": 2,
  "solcInputHash": "9a574a12c466a2893a4677042b19d757",
  "bytecode": "0x60806040523480156200001157600080fd5b506200001c62000022565b620000d6565b7ff0c57e16840df040f15088dc2f81fe391c3923bec73e23a9662efc9c229c6a00805468010000000000000000900460ff1615620000735760405163f92ee8a960e01b815260040160405180910390fd5b80546001600160401b0390811614620000d35780546001600160401b0319166001600160401b0390811782556040519081527fc7f505b2f371ae2175ee4913f4499e1f2633a7b5936321eed1cdaeb6115181d29060200160405180910390a15b50565b61311180620000e66000396000f3fe608060405234801561001057600080fd5b50600436106101f05760003560e01c8063a278d5261161010f578063d6842339116100a2578063f2f8511a11610071578063f2f8511a146104f5578063f3ff9bb314610508578063f8c8765e146105bd578063fcd222a3146105d057600080fd5b8063d68423391461047d578063e221505314610490578063e3043ee8146104a3578063f0ac97a5146104b657600080fd5b8063ad6706bb116100de578063ad6706bb14610424578063ba76775414610437578063bd3507da14610457578063d547741f1461046a57600080fd5b8063a278d526146103c9578063a925a09a146103dc578063abfade85146103f1578063ac9650d81461040457600080fd5b80633c423f0b116101875780638928e74d116101565780638928e74d1461033c57806391d148541461034f5780639bde779514610362578063a217fddf146103c157600080fd5b80633c423f0b146102d85780633de71ff0146102eb57806347ccca02146102fe57806370a082311461032957600080fd5b80632f2ff15d116101c35780632f2ff15d1461028a5780632f745c591461029f5780633512ad3e146102b257806336568abe146102c557600080fd5b806301ffc9a7146101f55780630ae7b9911461021d578063150b7a021461024b578063248a9ca314610277575b600080fd5b610208610203366004612731565b6105f7565b60405190151581526020015b60405180910390f35b61023d61022b36600461275b565b60066020526000908152604090205481565b604051908152602001610214565b61025e610259366004612789565b61062e565b6040516001600160e01b03199091168152602001610214565b61023d61028536600461275b565b6106f6565b61029d610298366004612828565b610718565b005b61023d6102ad366004612858565b61073a565b61023d6102c0366004612884565b610763565b61029d6102d3366004612828565b61077b565b61029d6102e6366004612932565b6107b3565b61023d6102f936600461275b565b610ba6565b600054610311906001600160a01b031681565b6040516001600160a01b039091168152602001610214565b61023d61033736600461299f565b610bbd565b61029d61034a366004612884565b610bde565b61020861035d366004612828565b610cfa565b6103a1610370366004612884565b60076020908152600092835260408084209091529082529020546001600160801b0380821691600160801b90041682565b604080516001600160801b03938416815292909116602083015201610214565b61023d600081565b61029d6103d73660046129dc565b610d32565b61023d60008051602061309c83398151915281565b61029d6103ff366004612a35565b610d94565b610417610412366004612aa1565b611023565b6040516102149190612b66565b61029d610432366004612884565b61110b565b61044a61044536600461275b565b611266565b6040516102149190612bca565b61029d61046536600461275b565b611300565b61029d610478366004612828565b61137c565b600254610311906001600160a01b031681565b61029d61049e366004612bf2565b611398565b6103a16104b1366004612884565b611757565b6103a16104c4366004612884565b60086020908152600092835260408084209091529082529020546001600160801b0380821691600160801b90041682565b600154610311906001600160a01b031681565b61057261051636600461275b565b600360205260009081526040902080546001909101546001600160801b038083169263ffffffff600160801b808304821694600160a01b8404831694600160c01b8504841694600160e01b900490931692818116929091041687565b604080516001600160801b03988916815263ffffffff97881660208201529587169086015292851660608501529316608083015291831660a0820152911660c082015260e001610214565b61029d6105cb366004612c6b565b6117d8565b61023d7f58a091b35f80bf54631090022328af78163c65b6b8fe6a4f19b69534d179fed081565b60006001600160e01b03198216637965db0b60e01b148061062857506301ffc9a760e01b6001600160e01b03198316145b92915050565b600080546001600160a01b0316331461068e5760405162461bcd60e51b815260206004820152601c60248201527f6e6f742061206370696e207669727475616c2070616e656c206e66740000000060448201526064015b60405180910390fd5b816106ce5760405162461bcd60e51b815260206004820152601060248201526f1b9bc819185d18481c1c9bdd9a59195960821b6044820152606401610685565b6106e4846106de8486018661275b565b8761197a565b50630a85bd0160e11b95945050505050565b60009081526000805160206130bc833981519152602052604090206001015490565b610721826106f6565b61072a81611d9a565b6107348383611da7565b50505050565b6001600160a01b038216600090815260096020526040812061075c9083611e53565b9392505050565b600082815260056020526040812061075c9083611e53565b6001600160a01b03811633146107a45760405163334bd91960e11b815260040160405180910390fd5b6107ae8282611e5f565b505050565b600080546040516334dd5e1560e21b81526004810186905282916001600160a01b03169063d3757854906024016040805180830381865afa1580156107fc573d6000803e3d6000fd5b505050506040513d601f19601f820116820180604052508101906108209190612cc7565b915091506000826001600160801b0316116108725760405162461bcd60e51b81526020600482015260126024820152713737b716b2bc34b9ba32b73a103a37b5b2b760711b6044820152606401610685565b6001600160a01b03841660009081526009602052604090206108949086611edb565b6108d05760405162461bcd60e51b815260206004820152600d60248201526c34b73b30b634b21037bbb732b960991b6044820152606401610685565b428163ffffffff16111561092f576001600160a01b038416331461092f5760405162461bcd60e51b81526020600482015260166024820152751bdb9b1e481bdddb995c8818d85b8818dbdb1b1958dd60521b6044820152606401610685565b600085815260066020526040902054610949868287611ef3565b600081815260036020908152604091829020825160e08101845281546001600160801b0380821680845263ffffffff600160801b808504821697860197909752600160a01b8404811697850197909752600160c01b830487166060850152600160e01b909204909516608083015260019092015480851660a08301529290920490921660c082015290849082906109e1908390612d0c565b6001600160801b0316905250604081018051906109fd82612d2c565b63ffffffff90811690915260008481526003602090815260408083208651815484890151848a015160608b015160808c01518a16600160e01b026001600160e01b03918b16600160c01b0263ffffffff60c01b19938c16600160a01b029390931667ffffffffffffffff60a01b19948c16600160801b9081026001600160a01b03199097166001600160801b0398891617969096179490941693909317919091171617835560a089015160c08a015183169091029116176001909101556001600160a01b038b16835260099091529020610adb925090899061204616565b5060008781526006602052604080822082905590549051635c46a7ef60e11b81526001600160a01b039091169063b88d4fde90610b229030908a908c908b90600401612d4c565b600060405180830381600087803b158015610b3c57600080fd5b505af1158015610b50573d6000803e3d6000fd5b5050604080518a8152602081018690526001600160801b0388168183015290517fc0f5cea5f46ac30c06facea0350694cb514a93ee92a2da625b2a696fe1624faa9350908190036060019150a150505050505050565b600081815260056020526040812061062890612052565b6001600160a01b038116600090815260096020526040812061062890612052565b60008051602061309c833981519152610bf681611d9a565b600083815260036020526040902054600160801b900463ffffffff16610c4e5760405162461bcd60e51b815260206004820152600d60248201526c14d414081b9bdd08199bdd5b99609a1b6044820152606401610685565b6000838152600560205260409020610c669083611edb565b610ca25760405162461bcd60e51b815260206004820152600d60248201526c191a59081b9bdd08199bdd5b99609a1b6044820152606401610685565b6000838152600560205260409020610cba9083612046565b5060408051848152602081018490527fae7443998f1af030e485fe6fc051f45e94f9f1e5640193cdd3eeaec9336bf7aa91015b60405180910390a1505050565b60009182526000805160206130bc833981519152602090815260408084206001600160a01b0393909316845291905290205460ff1690565b60008051602061309c833981519152610d4a81611d9a565b6000838152600460205260409020610d628382612e09565b507fedb141dfbe8eea85d498187fc869ad6b9dae6d7dce98472834d6a054518f54068383604051610ced929190612ec9565b60008051602061309c833981519152610dac81611d9a565b60008511610df25760405162461bcd60e51b81526020600482015260136024820152726964206d75737420626520706f73697469766560681b6044820152606401610685565b600085815260036020526040902054600160801b900463ffffffff1615610e505760405162461bcd60e51b815260206004820152601260248201527153505020616c72656164792065786973747360701b6044820152606401610685565b8363ffffffff16421115610ea65760405162461bcd60e51b815260206004820152601b60248201527f737461727454696d65206d757374206265206166746572206e6f7700000000006044820152606401610685565b6000825111610ee85760405162461bcd60e51b815260206004820152600e60248201526d195b5c1d1e481a5c199cc818da5960921b6044820152606401610685565b6040805160e081018252600080825263ffffffff8088166020808501828152858701858152606087019384528a85166080880190815260a0880187815260c089018881528f8952600386528a892099518a5495519451975193518916600160e01b026001600160e01b03948a16600160c01b0263ffffffff60c01b19998b16600160a01b029990991667ffffffffffffffff60a01b1996909a16600160801b9081026001600160a01b03199098166001600160801b039384161797909717959095169890981796909617919091169190911787555192518416029190921617600190930192909255600490915220610fe08382612e09565b507f2901445817bb97938d949a68bd568f023e61da08d1a669c9c042a8a96cb825b585858460405161101493929190612eea565b60405180910390a15050505050565b6040805160008152602081019091526060908267ffffffffffffffff81111561104e5761104e6128a6565b60405190808252806020026020018201604052801561108157816020015b606081526020019060019003908161106c5790505b50915060005b83811015611103576110de308686848181106110a5576110a5612f22565b90506020028101906110b79190612f38565b856040516020016110ca93929190612f86565b60405160208183030381529060405261205c565b8382815181106110f0576110f0612f22565b6020908102919091010152600101611087565b505092915050565b60008051602061309c83398151915261112381611d9a565b600083815260036020526040902054600160801b900463ffffffff1661117b5760405162461bcd60e51b815260206004820152600d60248201526c14d414081b9bdd08199bdd5b99609a1b6044820152606401610685565b816000036111bd5760405162461bcd60e51b815260206004820152600f60248201526e696e76616c6964206164647265737360881b6044820152606401610685565b60008381526005602052604090206111d59083611edb565b156112175760405162461bcd60e51b8152602060048201526012602482015271185b1c9958591e481c9959da5cdd195c995960721b6044820152606401610685565b600083815260056020526040902061122f90836120d2565b5060408051848152602081018490527fae5ecbf0c241d947ba95d558775f54835565b930391185474a2bd3a5debcae6e9101610ced565b6004602052600090815260409020805461127f90612d7f565b80601f01602080910402602001604051908101604052809291908181526020018280546112ab90612d7f565b80156112f85780601f106112cd576101008083540402835291602001916112f8565b820191906000526020600020905b8154815290600101906020018083116112db57829003601f168201915b505050505081565b3360009081526009602052604090206113199082611edb565b61135e5760405162461bcd60e51b81526020600482015260166024820152751bdb9b1e481bdddb995c8818d85b8818dbdb1b1958dd60521b6044820152606401610685565b600081815260066020526040902054611378828233611ef3565b5050565b611385826106f6565b61138e81611d9a565b6107348383611e5f565b7f58a091b35f80bf54631090022328af78163c65b6b8fe6a4f19b69534d179fed06113c281611d9a565b428563ffffffff16106114175760405162461bcd60e51b815260206004820152601760248201527f74696d65206d757374206265206265666f7265206e6f770000000000000000006044820152606401610685565b600087815260036020908152604091829020825160e08101845281546001600160801b03808216835263ffffffff600160801b8084048216968501879052600160a01b8404821697850197909752600160c01b830481166060850152600160e01b909204909116608083015260019092015480831660a0830152939093041660c08301526114da5760405162461bcd60e51b815260206004820152601060248201526f06e6f6e2d6578697374656e74205350560841b6044820152606401610685565b8663ffffffff16816060015163ffffffff16146115395760405162461bcd60e51b815260206004820152601a60248201527f696e76616c69642070726576696f757355706461746554696d650000000000006044820152606401610685565b6000846001600160801b031611801561155b575080516001600160801b031615155b156115a857805161156c9085612fad565b8160a00181815161157d9190612fe1565b6001600160801b039081169091526001546115a892506001600160a01b0316903390309088166120de565b6000836001600160801b03161180156115ca575080516001600160801b031615155b156116175780516115db9084612fad565b8160c0018181516115ec9190612fe1565b6001600160801b0390811690915260025461161792506001600160a01b0316903390309087166120de565b63ffffffff8087166060830190815260008a815260036020908152604091829020855181549287015184880151955160808901518816600160e01b026001600160e01b03918916600160c01b0263ffffffff60c01b19988a16600160a01b029890981667ffffffffffffffff60a01b1993909916600160801b9081026001600160a01b03199097166001600160801b0395861617969096179290921697909717959095179590951693909317835560a085015160c08601518516909102931692909217600190910155517fabb050dfab079c06cc2fc5cc098f4765b413e1106c9bcab94647481aa65412ea90611745908a90899089908990899094855263ffffffff9390931660208501526001600160801b0391821660408501528116606084015216608082015260a00190565b60405180910390a15050505050505050565b6000806000806117678686612145565b60008881526008602090815260408083208a84528252918290208251808401909352546001600160801b03808216808552600160801b9092041691830191909152929450909250906117ba908490612fe1565b94508181602001516117cc9190612fe1565b93505050509250929050565b7ff0c57e16840df040f15088dc2f81fe391c3923bec73e23a9662efc9c229c6a008054600160401b810460ff16159067ffffffffffffffff1660008115801561181e5750825b905060008267ffffffffffffffff16600114801561183b5750303b155b905081158015611849575080155b156118675760405163f92ee8a960e01b815260040160405180910390fd5b845467ffffffffffffffff19166001178555831561189157845460ff60401b1916600160401b1785555b6118996122a1565b6118a16122a1565b600080546001600160a01b03808b166001600160a01b0319928316178355600180548b831690841617905560028054918a16919092161790556118e4908a611da7565b506118fd60008051602061309c8339815191528a611da7565b506119287f58a091b35f80bf54631090022328af78163c65b6b8fe6a4f19b69534d179fed08a611da7565b50831561196f57845460ff60401b19168555604051600181527fc7f505b2f371ae2175ee4913f4499e1f2633a7b5936321eed1cdaeb6115181d29060200160405180910390a15b505050505050505050565b600080546040516334dd5e1560e21b81526004810186905282916001600160a01b03169063d3757854906024016040805180830381865afa1580156119c3573d6000803e3d6000fd5b505050506040513d601f19601f820116820180604052508101906119e79190612cc7565b915091506000826001600160801b031611611a395760405162461bcd60e51b81526020600482015260126024820152713737b716b2bc34b9ba32b73a103a37b5b2b760711b6044820152606401610685565b428163ffffffff1611611a7e5760405162461bcd60e51b815260206004820152600d60248201526c1d1bdad95b88195e1c1a5c9959609a1b6044820152606401610685565b600084815260036020908152604091829020825160e08101845281546001600160801b03808216835263ffffffff600160801b8084048216968501879052600160a01b8404821697850197909752600160c01b830481166060850152600160e01b909204909116608083015260019092015480831660a0830152939093041660c0830152611b415760405162461bcd60e51b815260206004820152601060248201526f06e6f6e2d6578697374656e74205350560841b6044820152606401610685565b42816020015163ffffffff1610611b8c5760405162461bcd60e51b815260206004820152600f60248201526e14d414081b9bdd081cdd185c9d1959608a1b6044820152606401610685565b8051611b99908490612fe1565b6001600160801b0316816080015163ffffffff161015611bf15760405162461bcd60e51b81526020600482015260136024820152726e6f7420656e6f75676820636170616369747960681b6044820152606401610685565b8281600001818151611c039190612fe1565b6001600160801b031690525060408101805190611c1f82613001565b63ffffffff90811690915260008781526003602090815260408083208651815484890151848a015160608b015160808c01518a16600160e01b026001600160e01b03918b16600160c01b0263ffffffff60c01b19938c16600160a01b029390931667ffffffffffffffff60a01b19948c16600160801b9081026001600160a01b03199097166001600160801b0398891617969096179490941693909317919091171617835560a08901805160c08b01805185168402918516919091176001909501949094558e8752600686528487208e905584518086018652905183168152925182168386019081528e8752600786528487208e8852865284872093519051831690910291161790556001600160a01b038916835260099091529020611d4992509088906120d216565b5060408051878152602081018790526001600160801b0385168183015290517fb0f7a33bc3807cbddd1c70898b8eef2430bc0600c4499ebf0cce73f5b156a0e79181900360600190a1505050505050565b611da481336122ab565b50565b60006000805160206130bc833981519152611dc28484610cfa565b611e42576000848152602082815260408083206001600160a01b03871684529091529020805460ff19166001179055611df83390565b6001600160a01b0316836001600160a01b0316857f2f8788117e7eff1d82e926ec794901d17c78024a50270940304540a733656f0d60405160405180910390a46001915050610628565b6000915050610628565b5092915050565b600061075c83836122e4565b60006000805160206130bc833981519152611e7a8484610cfa565b15611e42576000848152602082815260408083206001600160a01b0387168085529252808320805460ff1916905551339287917ff6391f5c32d9c69d2a47ea670b442974b53935d1edc7fd64eb21e047a839171b9190a46001915050610628565b6000818152600183016020526040812054151561075c565b611efd838361230e565b60008381526008602090815260408083208584528252918290208251808401909352546001600160801b03808216808552600160801b909204169183019190915215611f66576001548151611f66916001600160a01b03169084906001600160801b031661241c565b60208101516001600160801b031615611f9f576002546020820151611f9f916001600160a01b03169084906001600160801b031661241c565b6040805180820182526000808252602080830182815288835260088252848320888452825291849020925191516001600160801b03908116600160801b029281169290921790925583518483015184518981529384018890526001600160a01b03871684860152908216606084015216608082015290517ff0cea7eba9827ade46cfbff8a1ccd22c5f3bc6dea4d3afd54c0aae022a2191239181900360a00190a150505050565b600061075c838361244d565b6000610628825490565b6060600080846001600160a01b0316846040516120799190613024565b600060405180830381855af49150503d80600081146120b4576040519150601f19603f3d011682016040523d82523d6000602084013e6120b9565b606091505b50915091506120c9858383612536565b95945050505050565b600061075c838361258b565b6040516001600160a01b0384811660248301528381166044830152606482018390526107349186918216906323b872dd906084015b604051602081830303815290604052915060e01b6020820180516001600160e01b0383818316178352505050506125da565b600080546040516334dd5e1560e21b815260048101859052829182916001600160a01b039091169063d3757854906024016040805180830381865afa158015612192573d6000803e3d6000fd5b505050506040513d601f19601f820116820180604052508101906121b69190612cc7565b506000858152600360209081526040808320815160e08101835281546001600160801b03808216835263ffffffff600160801b808404821685890152600160a01b8404821685880152600160c01b840482166060860152600160e01b90930416608084015260019093015480841660a0840190815290829004841660c08401528c8752600786528487208c88528652958490208451808601909552548084168086529190049092169383019390935292519394509092909161227791612d0c565b6122819084613040565b945080602001518260c001516122979190612d0c565b6117cc9084613040565b6122a961263d565b565b6122b58282610cfa565b6113785760405163e2517d3f60e01b81526001600160a01b038216600482015260248101839052604401610685565b60008260000182815481106122fb576122fb612f22565b9060005260206000200154905092915050565b60008061231b8484612145565b60008681526008602090815260408083208884528252918290208251808401909352546001600160801b03808216808552600160801b90920416918301919091529294509092509083908290612372908390612fe1565b6001600160801b0316905250602081018051839190612392908390612fe1565b6001600160801b0390811690915260008781526008602090815260408083208984528252808320865196830151968516600160801b9786168802179055805180820182526003835281842060010154808616825287900485168184019081529a84526007835281842099845298909152902095519651968116961690910294909417909255505050565b6040516001600160a01b038381166024830152604482018390526107ae91859182169063a9059cbb90606401612113565b60008181526001830160205260408120548015611e42576000612471600183612f0f565b855490915060009061248590600190612f0f565b90508082146124ea5760008660000182815481106124a5576124a5612f22565b90600052602060002001549050808760000184815481106124c8576124c8612f22565b6000918252602080832090910192909255918252600188019052604090208390555b85548690806124fb576124fb613063565b600190038181906000526020600020016000905590558560010160008681526020019081526020016000206000905560019350505050610628565b60608261254b5761254682612686565b61075c565b815115801561256257506001600160a01b0384163b155b15611e4c57604051639996b31560e01b81526001600160a01b0385166004820152602401610685565b60008181526001830160205260408120546125d257508154600181810184556000848152602080822090930184905584548482528286019093526040902091909155610628565b506000610628565b60006125ef6001600160a01b038416836126af565b905080516000141580156126145750808060200190518101906126129190613079565b155b156107ae57604051635274afe760e01b81526001600160a01b0384166004820152602401610685565b7ff0c57e16840df040f15088dc2f81fe391c3923bec73e23a9662efc9c229c6a0054600160401b900460ff166122a957604051631afcd79f60e31b815260040160405180910390fd5b8051156126965780518082602001fd5b604051630a12f52160e11b815260040160405180910390fd5b606061075c8383600084600080856001600160a01b031684866040516126d59190613024565b60006040518083038185875af1925050503d8060008114612712576040519150601f19603f3d011682016040523d82523d6000602084013e612717565b606091505b5091509150612727868383612536565b9695505050505050565b60006020828403121561274357600080fd5b81356001600160e01b03198116811461075c57600080fd5b60006020828403121561276d57600080fd5b5035919050565b6001600160a01b0381168114611da457600080fd5b6000806000806000608086880312156127a157600080fd5b85356127ac81612774565b945060208601356127bc81612774565b935060408601359250606086013567ffffffffffffffff808211156127e057600080fd5b818801915088601f8301126127f457600080fd5b81358181111561280357600080fd5b89602082850101111561281557600080fd5b9699959850939650602001949392505050565b6000806040838503121561283b57600080fd5b82359150602083013561284d81612774565b809150509250929050565b6000806040838503121561286b57600080fd5b823561287681612774565b946020939093013593505050565b6000806040838503121561289757600080fd5b50508035926020909101359150565b634e487b7160e01b600052604160045260246000fd5b600067ffffffffffffffff808411156128d7576128d76128a6565b604051601f8501601f19908116603f011681019082821181831017156128ff576128ff6128a6565b8160405280935085815286868601111561291857600080fd5b858560208301376000602087830101525050509392505050565b60008060006060848603121561294757600080fd5b83359250602084013561295981612774565b9150604084013567ffffffffffffffff81111561297557600080fd5b8401601f8101861361298657600080fd5b612995868235602084016128bc565b9150509250925092565b6000602082840312156129b157600080fd5b813561075c81612774565b600082601f8301126129cd57600080fd5b61075c838335602085016128bc565b600080604083850312156129ef57600080fd5b82359150602083013567ffffffffffffffff811115612a0d57600080fd5b612a19858286016129bc565b9150509250929050565b63ffffffff81168114611da457600080fd5b60008060008060808587031215612a4b57600080fd5b843593506020850135612a5d81612a23565b92506040850135612a6d81612a23565b9150606085013567ffffffffffffffff811115612a8957600080fd5b612a95878288016129bc565b91505092959194509250565b60008060208385031215612ab457600080fd5b823567ffffffffffffffff80821115612acc57600080fd5b818501915085601f830112612ae057600080fd5b813581811115612aef57600080fd5b8660208260051b8501011115612b0457600080fd5b60209290920196919550909350505050565b60005b83811015612b31578181015183820152602001612b19565b50506000910152565b60008151808452612b52816020860160208601612b16565b601f01601f19169290920160200192915050565b600060208083016020845280855180835260408601915060408160051b87010192506020870160005b82811015612bbd57603f19888603018452612bab858351612b3a565b94509285019290850190600101612b8f565b5092979650505050505050565b60208152600061075c6020830184612b3a565b6001600160801b0381168114611da457600080fd5b60008060008060008060c08789031215612c0b57600080fd5b863595506020870135612c1d81612a23565b94506040870135612c2d81612a23565b93506060870135612c3d81612bdd565b92506080870135612c4d81612bdd565b915060a0870135612c5d81612bdd565b809150509295509295509295565b60008060008060808587031215612c8157600080fd5b8435612c8c81612774565b93506020850135612c9c81612774565b92506040850135612cac81612774565b91506060850135612cbc81612774565b939692955090935050565b60008060408385031215612cda57600080fd5b8251612ce581612bdd565b602084015190925061284d81612a23565b634e487b7160e01b600052601160045260246000fd5b6001600160801b03828116828216039080821115611e4c57611e4c612cf6565b600063ffffffff821680612d4257612d42612cf6565b6000190192915050565b6001600160a01b038581168252841660208201526040810183905260806060820181905260009061272790830184612b3a565b600181811c90821680612d9357607f821691505b602082108103612db357634e487b7160e01b600052602260045260246000fd5b50919050565b601f8211156107ae576000816000526020600020601f850160051c81016020861015612de25750805b601f850160051c820191505b81811015612e0157828155600101612dee565b505050505050565b815167ffffffffffffffff811115612e2357612e236128a6565b612e3781612e318454612d7f565b84612db9565b602080601f831160018114612e6c5760008415612e545750858301515b600019600386901b1c1916600185901b178555612e01565b600085815260208120601f198616915b82811015612e9b57888601518255948401946001909101908401612e7c565b5085821015612eb95787850151600019600388901b60f8161c191681555b5050505050600190811b01905550565b828152604060208201526000612ee26040830184612b3a565b949350505050565b83815263ffffffff831660208201526060604082015260006120c96060830184612b3a565b8181038181111561062857610628612cf6565b634e487b7160e01b600052603260045260246000fd5b6000808335601e19843603018112612f4f57600080fd5b83018035915067ffffffffffffffff821115612f6a57600080fd5b602001915036819003821315612f7f57600080fd5b9250929050565b828482376000838201600081528351612fa3818360208801612b16565b0195945050505050565b60006001600160801b0380841680612fd557634e487b7160e01b600052601260045260246000fd5b92169190910492915050565b6001600160801b03818116838216019080821115611e4c57611e4c612cf6565b600063ffffffff80831681810361301a5761301a612cf6565b6001019392505050565b60008251613036818460208701612b16565b9190910192915050565b6001600160801b0381811683821602808216919082811461110357611103612cf6565b634e487b7160e01b600052603160045260246000fd5b60006020828403121561308b57600080fd5b8151801515811461075c57600080fdfeb0c331f811f0a143bc7db7ce1e54ade59db9a37bbc06b4b393bab580f7a3c73c02dd7bc7dec4dceedda775e58dd541e08a116c6c53815c0bd028192f7b626800a26469706673582212202243c87c863bde890fad4ce4c0ff60348a6344b3b5ee9c25019e737d8c1396f564736f6c63430008170033",
  "devdoc": {
    "errors": {
      "AccessControlBadConfirmation()": [
        {
          "details": "The caller of a function is not the expected one. NOTE: Don't confuse with {AccessControlUnauthorizedAccount}."
        }
      ],
      "AccessControlUnauthorizedAccount(address,bytes32)": [
        {
          "details": "The `account` is missing a role."
        }
      ],
      "AddressEmptyCode(address)": [
        {
          "details": "There's no code at `target` (it is not a contract)."
        }
      ],
      "AddressInsufficientBalance(address)": [
        {
          "details": "The ETH balance of the account is not enough to perform the operation."
        }
      ],
      "FailedInnerCall()": [
        {
          "details": "A call to an address target failed. The target may have reverted."
        }
      ],
      "InvalidInitialization()": [
        {
          "details": "The contract is already initialized."
        }
      ],
      "NotInitializing()": [
        {
          "details": "The contract is not initializing."
        }
      ],
      "SafeERC20FailedOperation(address)": [
        {
          "details": "An operation with an ERC20 token failed."
        }
      ]
    },
    "events": {
      "Initialized(uint64)": {
        "details": "Triggered when the contract has been initialized or reinitialized."
      },
      "RoleAdminChanged(bytes32,bytes32,bytes32)": {
        "details": "Emitted when `newAdminRole` is set as ``role``'s admin role, replacing `previousAdminRole` `DEFAULT_ADMIN_ROLE` is the starting admin for all roles, despite {RoleAdminChanged} not being emitted signaling this."
      },
      "RoleGranted(bytes32,address,address)": {
        "details": "Emitted when `account` is granted `role`. `sender` is the account that originated the contract call, an admin role bearer except when using {AccessControl-_setupRole}."
      },
      "RoleRevoked(bytes32,address,address)": {
        "details": "Emitted when `account` is revoked `role`. `sender` is the account that originated the contract call:   - if using `revokeRole`, it is the admin role bearer   - if using `renounceRole`, it is the role bearer (i.e. `account`)"
      }
    },
    "kind": "dev",
    "methods": {
      "constructor": {
        "custom:oz-upgrades-unsafe-allow": "constructor"
      },
      "getRoleAdmin(bytes32)": {
        "details": "Returns the admin role that controls `role`. See {grantRole} and {revokeRole}. To change a role's admin, use {_setRoleAdmin}."
      },
      "grantRole(bytes32,address)": {
        "details": "Grants `role` to `account`. If `account` had not been already granted `role`, emits a {RoleGranted} event. Requirements: - the caller must have ``role``'s admin role. May emit a {RoleGranted} event."
      },
      "hasRole(bytes32,address)": {
        "details": "Returns `true` if `account` has been granted `role`."
      },
      "multicall(bytes[])": {
        "custom:oz-upgrades-unsafe-allow-reachable": "delegatecall",
        "details": "Receives and executes a batch of function calls on this contract."
      },
      "onERC721Received(address,address,uint256,bytes)": {
        "details": "Whenever an {IERC721} `tokenId` token is transferred to this contract via {IERC721-safeTransferFrom} by `operator` from `from`, this function is called. It must return its Solidity selector to confirm the token transfer. If any other value is returned or the interface is not implemented by the recipient, the transfer will be reverted. The selector can be obtained in Solidity with `IERC721Receiver.onERC721Received.selector`."
      },
      "renounceRole(bytes32,address)": {
        "details": "Revokes `role` from the calling account. Roles are often managed via {grantRole} and {revokeRole}: this function's purpose is to provide a mechanism for accounts to lose their privileges if they are compromised (such as when a trusted device is misplaced). If the calling account had been revoked `role`, emits a {RoleRevoked} event. Requirements: - the caller must be `callerConfirmation`. May emit a {RoleRevoked} event."
      },
      "revokeRole(bytes32,address)": {
        "details": "Revokes `role` from `account`. If `account` had been granted `role`, emits a {RoleRevoked} event. Requirements: - the caller must have ``role``'s admin role. May emit a {RoleRevoked} event."
      },
      "supportsInterface(bytes4)": {
        "details": "See {IERC165-supportsInterface}."
      }
    },
    "stateVariables": {
      "sppDatas": {
        "details": "sppId => SppData"
      },
      "sppDids": {
        "details": "sppId => peaq did set"
      },
      "sppIpfsCids": {
        "details": "sppId => ipfs cid"
      },
      "tokenEarnedValues": {
        "details": "tokenId => sppId => TokenEarnedValues"
      },
      "tokenIdToSppId": {
        "details": "tokenId => sppId"
      },
      "tokenRewardIndexes": {
        "details": "tokenId => sppId => RewardIndexes"
      },
      "userStakedTokens": {
        "details": "account => staked tokens set"
      }
    },
    "title": "Stake Cpin Virtual Panels to SPP's and get CDATA and CWATT tokens",
    "version": 1
  },
  "userdoc": {
    "kind": "user",
    "methods": {},
    "version": 1
  },
  "storageLayout": {
    "storage": [
      {
        "astId": 10273,
        "contract": "contracts/CpinSppStaking.sol:CpinSppStaking",
        "label": "nft",
        "offset": 0,
        "slot": "0",
        "type": "t_contract(ICpinVirtualPanel)11676"
      },
      {
        "astId": 10277,
        "contract": "contracts/CpinSppStaking.sol:CpinSppStaking",
        "label": "CDATAToken",
        "offset": 0,
        "slot": "1",
        "type": "t_contract(IERC20)2299"
      },
      {
        "astId": 10281,
        "contract": "contracts/CpinSppStaking.sol:CpinSppStaking",
        "label": "CWATTToken",
        "offset": 0,
        "slot": "2",
        "type": "t_contract(IERC20)2299"
      },
      {
        "astId": 10288,
        "contract": "contracts/CpinSppStaking.sol:CpinSppStaking",
        "label": "sppDatas",
        "offset": 0,
        "slot": "3",
        "type": "t_mapping(t_uint256,t_struct(SppData)10264_storage)"
      },
      {
        "astId": 10294,
        "contract": "contracts/CpinSppStaking.sol:CpinSppStaking",
        "label": "sppIpfsCids",
        "offset": 0,
        "slot": "4",
        "type": "t_mapping(t_uint256,t_string_storage)"
      },
      {
        "astId": 10300,
        "contract": "contracts/CpinSppStaking.sol:CpinSppStaking",
        "label": "sppDids",
        "offset": 0,
        "slot": "5",
        "type": "t_mapping(t_uint256,t_struct(UintSet)9713_storage)"
      },
      {
        "astId": 10306,
        "contract": "contracts/CpinSppStaking.sol:CpinSppStaking",
        "label": "tokenIdToSppId",
        "offset": 0,
        "slot": "6",
        "type": "t_mapping(t_uint256,t_uint256)"
      },
      {
        "astId": 10315,
        "contract": "contracts/CpinSppStaking.sol:CpinSppStaking",
        "label": "tokenRewardIndexes",
        "offset": 0,
        "slot": "7",
        "type": "t_mapping(t_uint256,t_mapping(t_uint256,t_struct(TokenRewardInfo)10269_storage))"
      },
      {
        "astId": 10324,
        "contract": "contracts/CpinSppStaking.sol:CpinSppStaking",
        "label": "tokenEarnedValues",
        "offset": 0,
        "slot": "8",
        "type": "t_mapping(t_uint256,t_mapping(t_uint256,t_struct(TokenRewardInfo)10269_storage))"
      },
      {
        "astId": 10330,
        "contract": "contracts/CpinSppStaking.sol:CpinSppStaking",
        "label": "userStakedTokens",
        "offset": 0,
        "slot": "9",
        "type": "t_mapping(t_address,t_struct(UintSet)9713_storage)"
      }
    ],
    "types": {
      "t_address": {
        "encoding": "inplace",
        "label": "address",
        "numberOfBytes": "20"
      },
      "t_array(t_bytes32)dyn_storage": {
        "base": "t_bytes32",
        "encoding": "dynamic_array",
        "label": "bytes32[]",
        "numberOfBytes": "32"
      },
      "t_bytes32": {
        "encoding": "inplace",
        "label": "bytes32",
        "numberOfBytes": "32"
      },
      "t_contract(ICpinVirtualPanel)11676": {
        "encoding": "inplace",
        "label": "contract ICpinVirtualPanel",
        "numberOfBytes": "20"
      },
      "t_contract(IERC20)2299": {
        "encoding": "inplace",
        "label": "contract IERC20",
        "numberOfBytes": "20"
      },
      "t_mapping(t_address,t_struct(UintSet)9713_storage)": {
        "encoding": "mapping",
        "key": "t_address",
        "label": "mapping(address => struct EnumerableSet.UintSet)",
        "numberOfBytes": "32",
        "value": "t_struct(UintSet)9713_storage"
      },
      "t_mapping(t_bytes32,t_uint256)": {
        "encoding": "mapping",
        "key": "t_bytes32",
        "label": "mapping(bytes32 => uint256)",
        "numberOfBytes": "32",
        "value": "t_uint256"
      },
      "t_mapping(t_uint256,t_mapping(t_uint256,t_struct(TokenRewardInfo)10269_storage))": {
        "encoding": "mapping",
        "key": "t_uint256",
        "label": "mapping(uint256 => mapping(uint256 => struct CpinSppStaking.TokenRewardInfo))",
        "numberOfBytes": "32",
        "value": "t_mapping(t_uint256,t_struct(TokenRewardInfo)10269_storage)"
      },
      "t_mapping(t_uint256,t_string_storage)": {
        "encoding": "mapping",
        "key": "t_uint256",
        "label": "mapping(uint256 => string)",
        "numberOfBytes": "32",
        "value": "t_string_storage"
      },
      "t_mapping(t_uint256,t_struct(SppData)10264_storage)": {
        "encoding": "mapping",
        "key": "t_uint256",
        "label": "mapping(uint256 => struct CpinSppStaking.SppData)",
        "numberOfBytes": "32",
        "value": "t_struct(SppData)10264_storage"
      },
      "t_mapping(t_uint256,t_struct(TokenRewardInfo)10269_storage)": {
        "encoding": "mapping",
        "key": "t_uint256",
        "label": "mapping(uint256 => struct CpinSppStaking.TokenRewardInfo)",
        "numberOfBytes": "32",
        "value": "t_struct(TokenRewardInfo)10269_storage"
      },
      "t_mapping(t_uint256,t_struct(UintSet)9713_storage)": {
        "encoding": "mapping",
        "key": "t_uint256",
        "label": "mapping(uint256 => struct EnumerableSet.UintSet)",
        "numberOfBytes": "32",
        "value": "t_struct(UintSet)9713_storage"
      },
      "t_mapping(t_uint256,t_uint256)": {
        "encoding": "mapping",
        "key": "t_uint256",
        "label": "mapping(uint256 => uint256)",
        "numberOfBytes": "32",
        "value": "t_uint256"
      },
      "t_string_storage": {
        "encoding": "bytes",
        "label": "string",
        "numberOfBytes": "32"
      },
      "t_struct(Set)9241_storage": {
        "encoding": "inplace",
        "label": "struct EnumerableSet.Set",
        "members": [
          {
            "astId": 9236,
            "contract": "contracts/CpinSppStaking.sol:CpinSppStaking",
            "label": "_values",
            "offset": 0,
            "slot": "0",
            "type": "t_array(t_bytes32)dyn_storage"
          },
          {
            "astId": 9240,
            "contract": "contracts/CpinSppStaking.sol:CpinSppStaking",
            "label": "_positions",
            "offset": 0,
            "slot": "1",
            "type": "t_mapping(t_bytes32,t_uint256)"
          }
        ],
        "numberOfBytes": "64"
      },
      "t_struct(SppData)10264_storage": {
        "encoding": "inplace",
        "label": "struct CpinSppStaking.SppData",
        "members": [
          {
            "astId": 10251,
            "contract": "contracts/CpinSppStaking.sol:CpinSppStaking",
            "label": "totalStakedCapacity",
            "offset": 0,
            "slot": "0",
            "type": "t_uint128"
          },
          {
            "astId": 10253,
            "contract": "contracts/CpinSppStaking.sol:CpinSppStaking",
            "label": "startTime",
            "offset": 16,
            "slot": "0",
            "type": "t_uint32"
          },
          {
            "astId": 10255,
            "contract": "contracts/CpinSppStaking.sol:CpinSppStaking",
            "label": "numberOfStakes",
            "offset": 20,
            "slot": "0",
            "type": "t_uint32"
          },
          {
            "astId": 10257,
            "contract": "contracts/CpinSppStaking.sol:CpinSppStaking",
            "label": "lastUpdateTime",
            "offset": 24,
            "slot": "0",
            "type": "t_uint32"
          },
          {
            "astId": 10259,
            "contract": "contracts/CpinSppStaking.sol:CpinSppStaking",
            "label": "maxCapacity",
            "offset": 28,
            "slot": "0",
            "type": "t_uint32"
          },
          {
            "astId": 10261,
            "contract": "contracts/CpinSppStaking.sol:CpinSppStaking",
            "label": "rewardIndexCDATA",
            "offset": 0,
            "slot": "1",
            "type": "t_uint128"
          },
          {
            "astId": 10263,
            "contract": "contracts/CpinSppStaking.sol:CpinSppStaking",
            "label": "rewardIndexCWATT",
            "offset": 16,
            "slot": "1",
            "type": "t_uint128"
          }
        ],
        "numberOfBytes": "64"
      },
      "t_struct(TokenRewardInfo)10269_storage": {
        "encoding": "inplace",
        "label": "struct CpinSppStaking.TokenRewardInfo",
        "members": [
          {
            "astId": 10266,
            "contract": "contracts/CpinSppStaking.sol:CpinSppStaking",
            "label": "valueCDATA",
            "offset": 0,
            "slot": "0",
            "type": "t_uint128"
          },
          {
            "astId": 10268,
            "contract": "contracts/CpinSppStaking.sol:CpinSppStaking",
            "label": "valueCWATT",
            "offset": 16,
            "slot": "0",
            "type": "t_uint128"
          }
        ],
        "numberOfBytes": "32"
      },
      "t_struct(UintSet)9713_storage": {
        "encoding": "inplace",
        "label": "struct EnumerableSet.UintSet",
        "members": [
          {
            "astId": 9712,
            "contract": "contracts/CpinSppStaking.sol:CpinSppStaking",
            "label": "_inner",
            "offset": 0,
            "slot": "0",
            "type": "t_struct(Set)9241_storage"
          }
        ],
        "numberOfBytes": "64"
      },
      "t_uint128": {
        "encoding": "inplace",
        "label": "uint128",
        "numberOfBytes": "16"
      },
      "t_uint256": {
        "encoding": "inplace",
        "label": "uint256",
        "numberOfBytes": "32"
      },
      "t_uint32": {
        "encoding": "inplace",
        "label": "uint32",
        "numberOfBytes": "4"
      }
    }
  }
}